{
  "contractName": "DigitalLocker",
  "abi": [
    {
      "constant": true,
      "inputs": [],
      "name": "LockerStatus",
      "outputs": [
        {
          "name": "",
          "type": "string"
        }
      ],
      "payable": false,
      "stateMutability": "view",
      "type": "function"
    },
    {
      "constant": true,
      "inputs": [],
      "name": "BankAgent",
      "outputs": [
        {
          "name": "",
          "type": "address"
        }
      ],
      "payable": false,
      "stateMutability": "view",
      "type": "function"
    },
    {
      "constant": true,
      "inputs": [],
      "name": "LockerFriendlyName",
      "outputs": [
        {
          "name": "",
          "type": "string"
        }
      ],
      "payable": false,
      "stateMutability": "view",
      "type": "function"
    },
    {
      "constant": true,
      "inputs": [],
      "name": "ExpirationDate",
      "outputs": [
        {
          "name": "",
          "type": "string"
        }
      ],
      "payable": false,
      "stateMutability": "view",
      "type": "function"
    },
    {
      "constant": true,
      "inputs": [],
      "name": "LockerIdentifier",
      "outputs": [
        {
          "name": "",
          "type": "string"
        }
      ],
      "payable": false,
      "stateMutability": "view",
      "type": "function"
    },
    {
      "constant": true,
      "inputs": [],
      "name": "Owner",
      "outputs": [
        {
          "name": "",
          "type": "address"
        }
      ],
      "payable": false,
      "stateMutability": "view",
      "type": "function"
    },
    {
      "constant": true,
      "inputs": [],
      "name": "CurrentAuthorizedUser",
      "outputs": [
        {
          "name": "",
          "type": "address"
        }
      ],
      "payable": false,
      "stateMutability": "view",
      "type": "function"
    },
    {
      "constant": true,
      "inputs": [],
      "name": "ThirdPartyRequestor",
      "outputs": [
        {
          "name": "",
          "type": "address"
        }
      ],
      "payable": false,
      "stateMutability": "view",
      "type": "function"
    },
    {
      "constant": true,
      "inputs": [],
      "name": "RejectionReason",
      "outputs": [
        {
          "name": "",
          "type": "string"
        }
      ],
      "payable": false,
      "stateMutability": "view",
      "type": "function"
    },
    {
      "constant": true,
      "inputs": [],
      "name": "Image",
      "outputs": [
        {
          "name": "",
          "type": "string"
        }
      ],
      "payable": false,
      "stateMutability": "view",
      "type": "function"
    },
    {
      "constant": true,
      "inputs": [],
      "name": "IntendedPurpose",
      "outputs": [
        {
          "name": "",
          "type": "string"
        }
      ],
      "payable": false,
      "stateMutability": "view",
      "type": "function"
    },
    {
      "constant": true,
      "inputs": [],
      "name": "State",
      "outputs": [
        {
          "name": "",
          "type": "uint8"
        }
      ],
      "payable": false,
      "stateMutability": "view",
      "type": "function"
    },
    {
      "inputs": [
        {
          "name": "lockerFriendlyName",
          "type": "string"
        },
        {
          "name": "bankAgent",
          "type": "address"
        }
      ],
      "payable": false,
      "stateMutability": "nonpayable",
      "type": "constructor"
    },
    {
      "constant": false,
      "inputs": [],
      "name": "BeginReviewProcess",
      "outputs": [],
      "payable": false,
      "stateMutability": "nonpayable",
      "type": "function"
    },
    {
      "constant": false,
      "inputs": [
        {
          "name": "rejectionReason",
          "type": "string"
        }
      ],
      "name": "RejectApplication",
      "outputs": [],
      "payable": false,
      "stateMutability": "nonpayable",
      "type": "function"
    },
    {
      "constant": false,
      "inputs": [
        {
          "name": "lockerIdentifier",
          "type": "string"
        },
        {
          "name": "image",
          "type": "string"
        }
      ],
      "name": "UploadDocuments",
      "outputs": [],
      "payable": false,
      "stateMutability": "nonpayable",
      "type": "function"
    },
    {
      "constant": false,
      "inputs": [
        {
          "name": "thirdPartyRequestor",
          "type": "address"
        },
        {
          "name": "expirationDate",
          "type": "string"
        },
        {
          "name": "intendedPurpose",
          "type": "string"
        }
      ],
      "name": "ShareWithThirdParty",
      "outputs": [],
      "payable": false,
      "stateMutability": "nonpayable",
      "type": "function"
    },
    {
      "constant": false,
      "inputs": [],
      "name": "AcceptSharingRequest",
      "outputs": [],
      "payable": false,
      "stateMutability": "nonpayable",
      "type": "function"
    },
    {
      "constant": false,
      "inputs": [],
      "name": "RejectSharingRequest",
      "outputs": [],
      "payable": false,
      "stateMutability": "nonpayable",
      "type": "function"
    },
    {
      "constant": false,
      "inputs": [
        {
          "name": "intendedPurpose",
          "type": "string"
        }
      ],
      "name": "RequestLockerAccess",
      "outputs": [],
      "payable": false,
      "stateMutability": "nonpayable",
      "type": "function"
    },
    {
      "constant": false,
      "inputs": [],
      "name": "ReleaseLockerAccess",
      "outputs": [],
      "payable": false,
      "stateMutability": "nonpayable",
      "type": "function"
    },
    {
      "constant": false,
      "inputs": [],
      "name": "RevokeAccessFromThirdParty",
      "outputs": [],
      "payable": false,
      "stateMutability": "nonpayable",
      "type": "function"
    },
    {
      "constant": false,
      "inputs": [],
      "name": "Terminate",
      "outputs": [],
      "payable": false,
      "stateMutability": "nonpayable",
      "type": "function"
    }
  ],
  "bytecode": "0x60806040523480156200001157600080fd5b5060405162001d2c38038062001d2c833981018060405260408110156200003757600080fd5b8101908080516401000000008111156200005057600080fd5b828101905060208101848111156200006757600080fd5b81518560018202830111640100000000821117156200008557600080fd5b505092919060200180519060200190929190505050336000806101000a81548173ffffffffffffffffffffffffffffffffffffffff021916908373ffffffffffffffffffffffffffffffffffffffff1602179055508160029080519060200190620000f292919062000161565b506001600b60006101000a81548160ff021916908360058111156200011357fe5b021790555080600160006101000a81548173ffffffffffffffffffffffffffffffffffffffff021916908373ffffffffffffffffffffffffffffffffffffffff160217905550505062000210565b828054600181600116156101000203166002900490600052602060002090601f016020900481019282601f10620001a457805160ff1916838001178555620001d5565b82800160010185558215620001d5579182015b82811115620001d4578251825591602001919060010190620001b7565b5b509050620001e49190620001e8565b5090565b6200020d91905b8082111562000209576000816000905550600101620001ef565b5090565b90565b611b0c80620002206000396000f3fe608060405234801561001057600080fd5b50600436106101425760003560e01c80639445eb3a116100b8578063d4b95f211161007c578063d4b95f2114610735578063dc2c5e3b1461077f578063e370f7c1146108f1578063e5123aaa14610974578063e8abe379146109f7578063f1b6dccd14610a7a57610142565b80639445eb3a146105d257806394553a03146105dc578063ab2f0dda146105e6578063b4a99a4e146106a1578063b55e4721146106eb57610142565b8063563c61b11161010a578063563c61b11461042b578063677b253f146104355780636965ec49146104b85780636eb46ec4146104c25780638496fd7014610545578063893a07df1461054f57610142565b806302b08d6a146101475780630868b932146101ca578063162e18941461021457806318bca80914610366578063447fd0e714610421575b600080fd5b61014f610aa6565b6040518080602001828103825283818151815260200191508051906020019080838360005b8381101561018f578082015181840152602081019050610174565b50505050905090810190601f1680156101bc5780820380516001836020036101000a031916815260200191505b509250505060405180910390f35b6101d2610b44565b604051808273ffffffffffffffffffffffffffffffffffffffff1673ffffffffffffffffffffffffffffffffffffffff16815260200191505060405180910390f35b6103646004803603604081101561022a57600080fd5b810190808035906020019064010000000081111561024757600080fd5b82018360208201111561025957600080fd5b8035906020019184600183028401116401000000008311171561027b57600080fd5b91908080601f016020809104026020016040519081016040528093929190818152602001838380828437600081840152601f19601f820116905080830192505050505050509192919290803590602001906401000000008111156102de57600080fd5b8201836020820111156102f057600080fd5b8035906020019184600183028401116401000000008311171561031257600080fd5b91908080601f016020809104026020016040519081016040528093929190818152602001838380828437600081840152601f19601f820116905080830192505050505050509192919290505050610b6a565b005b61041f6004803603602081101561037c57600080fd5b810190808035906020019064010000000081111561039957600080fd5b8201836020820111156103ab57600080fd5b803590602001918460018302840111640100000000831117156103cd57600080fd5b91908080601f016020809104026020016040519081016040528093929190818152602001838380828437600081840152601f19601f820116905080830192505050505050509192919290505050610c66565b005b610429610d3f565b005b610433610e21565b005b61043d610f2e565b6040518080602001828103825283818151815260200191508051906020019080838360005b8381101561047d578082015181840152602081019050610462565b50505050905090810190601f1680156104aa5780820380516001836020036101000a031916815260200191505b509250505060405180910390f35b6104c0610fcc565b005b6104ca6110d9565b6040518080602001828103825283818151815260200191508051906020019080838360005b8381101561050a5780820151818401526020810190506104ef565b50505050905090810190601f1680156105375780820380516001836020036101000a031916815260200191505b509250505060405180910390f35b61054d611177565b005b6105576112ed565b6040518080602001828103825283818151815260200191508051906020019080838360005b8381101561059757808201518184015260208101905061057c565b50505050905090810190601f1680156105c45780820380516001836020036101000a031916815260200191505b509250505060405180910390f35b6105da61138b565b005b6105e461144c565b005b61069f600480360360208110156105fc57600080fd5b810190808035906020019064010000000081111561061957600080fd5b82018360208201111561062b57600080fd5b8035906020019184600183028401116401000000008311171561064d57600080fd5b91908080601f016020809104026020016040519081016040528093929190818152602001838380828437600081840152601f19601f820116905080830192505050505050509192919290505050611559565b005b6106a961163d565b604051808273ffffffffffffffffffffffffffffffffffffffff1673ffffffffffffffffffffffffffffffffffffffff16815260200191505060405180910390f35b6106f3611662565b604051808273ffffffffffffffffffffffffffffffffffffffff1673ffffffffffffffffffffffffffffffffffffffff16815260200191505060405180910390f35b61073d611688565b604051808273ffffffffffffffffffffffffffffffffffffffff1673ffffffffffffffffffffffffffffffffffffffff16815260200191505060405180910390f35b6108ef6004803603606081101561079557600080fd5b81019080803573ffffffffffffffffffffffffffffffffffffffff169060200190929190803590602001906401000000008111156107d257600080fd5b8201836020820111156107e457600080fd5b8035906020019184600183028401116401000000008311171561080657600080fd5b91908080601f016020809104026020016040519081016040528093929190818152602001838380828437600081840152601f19601f8201169050808301925050505050505091929192908035906020019064010000000081111561086957600080fd5b82018360208201111561087b57600080fd5b8035906020019184600183028401116401000000008311171561089d57600080fd5b91908080601f016020809104026020016040519081016040528093929190818152602001838380828437600081840152601f19601f8201169050808301925050505050505091929192905050506116ae565b005b6108f961184e565b6040518080602001828103825283818151815260200191508051906020019080838360005b8381101561093957808201518184015260208101905061091e565b50505050905090810190601f1680156109665780820380516001836020036101000a031916815260200191505b509250505060405180910390f35b61097c6118ec565b6040518080602001828103825283818151815260200191508051906020019080838360005b838110156109bc5780820151818401526020810190506109a1565b50505050905090810190601f1680156109e95780820380516001836020036101000a031916815260200191505b509250505060405180910390f35b6109ff61198a565b6040518080602001828103825283818151815260200191508051906020019080838360005b83811015610a3f578082015181840152602081019050610a24565b50505050905090810190601f168015610a6c5780820380516001836020036101000a031916815260200191505b509250505060405180910390f35b610a82611a28565b60405180826005811115610a9257fe5b60ff16815260200191505060405180910390f35b60098054600181600116156101000203166002900480601f016020809104026020016040519081016040528092919081815260200182805460018160011615610100020316600290048015610b3c5780601f10610b1157610100808354040283529160200191610b3c565b820191906000526020600020905b815481529060010190602001808311610b1f57829003601f168201915b505050505081565b600160009054906101000a900473ffffffffffffffffffffffffffffffffffffffff1681565b3373ffffffffffffffffffffffffffffffffffffffff16600160009054906101000a900473ffffffffffffffffffffffffffffffffffffffff1673ffffffffffffffffffffffffffffffffffffffff1614610bc457600080fd5b6040518060400160405280600881526020017f417070726f76656400000000000000000000000000000000000000000000000081525060099080519060200190610c0f929190611a3b565b508060069080519060200190610c26929190611a3b565b508160039080519060200190610c3d929190611a3b565b506002600b60006101000a81548160ff02191690836005811115610c5d57fe5b02179055505050565b3373ffffffffffffffffffffffffffffffffffffffff166000809054906101000a900473ffffffffffffffffffffffffffffffffffffffff1673ffffffffffffffffffffffffffffffffffffffff161415610cc057600080fd5b33600760006101000a81548173ffffffffffffffffffffffffffffffffffffffff021916908373ffffffffffffffffffffffffffffffffffffffff1602179055508060089080519060200190610d17929190611a3b565b506003600b60006101000a81548160ff02191690836005811115610d3757fe5b021790555050565b3373ffffffffffffffffffffffffffffffffffffffff166000809054906101000a900473ffffffffffffffffffffffffffffffffffffffff1673ffffffffffffffffffffffffffffffffffffffff1614610d9857600080fd5b600760009054906101000a900473ffffffffffffffffffffffffffffffffffffffff16600460006101000a81548173ffffffffffffffffffffffffffffffffffffffff021916908373ffffffffffffffffffffffffffffffffffffffff1602179055506004600b60006101000a81548160ff02191690836005811115610e1a57fe5b0217905550565b3373ffffffffffffffffffffffffffffffffffffffff166000809054906101000a900473ffffffffffffffffffffffffffffffffffffffff1673ffffffffffffffffffffffffffffffffffffffff1614610e7a57600080fd5b6040518060400160405280600981526020017f417661696c61626c65000000000000000000000000000000000000000000000081525060099080519060200190610ec5929190611a3b565b506000600460006101000a81548173ffffffffffffffffffffffffffffffffffffffff021916908373ffffffffffffffffffffffffffffffffffffffff1602179055506002600b60006101000a81548160ff02191690836005811115610f2757fe5b0217905550565b60028054600181600116156101000203166002900480601f016020809104026020016040519081016040528092919081815260200182805460018160011615610100020316600290048015610fc45780601f10610f9957610100808354040283529160200191610fc4565b820191906000526020600020905b815481529060010190602001808311610fa757829003601f168201915b505050505081565b3373ffffffffffffffffffffffffffffffffffffffff166000809054906101000a900473ffffffffffffffffffffffffffffffffffffffff1673ffffffffffffffffffffffffffffffffffffffff16141561102657600080fd5b33600160006101000a81548173ffffffffffffffffffffffffffffffffffffffff021916908373ffffffffffffffffffffffffffffffffffffffff1602179055506040518060400160405280600781526020017f50656e64696e6700000000000000000000000000000000000000000000000000815250600990805190602001906110b2929190611a3b565b506001600b60006101000a81548160ff021916908360058111156110d257fe5b0217905550565b60058054600181600116156101000203166002900480601f01602080910402602001604051908101604052809291908181526020018280546001816001161561010002031660029004801561116f5780601f106111445761010080835404028352916020019161116f565b820191906000526020600020905b81548152906001019060200180831161115257829003601f168201915b505050505081565b3373ffffffffffffffffffffffffffffffffffffffff16600460009054906101000a900473ffffffffffffffffffffffffffffffffffffffff1673ffffffffffffffffffffffffffffffffffffffff16146111d157600080fd5b6040518060400160405280600981526020017f417661696c61626c6500000000000000000000000000000000000000000000008152506009908051906020019061121c929190611a3b565b506000600760006101000a81548173ffffffffffffffffffffffffffffffffffffffff021916908373ffffffffffffffffffffffffffffffffffffffff1602179055506000600460006101000a81548173ffffffffffffffffffffffffffffffffffffffff021916908373ffffffffffffffffffffffffffffffffffffffff16021790555060405180602001604052806000815250600890805190602001906112c6929190611a3b565b506002600b60006101000a81548160ff021916908360058111156112e657fe5b0217905550565b60038054600181600116156101000203166002900480601f0160208091040260200160405190810160405280929190818152602001828054600181600116156101000203166002900480156113835780601f1061135857610100808354040283529160200191611383565b820191906000526020600020905b81548152906001019060200180831161136657829003601f168201915b505050505081565b3373ffffffffffffffffffffffffffffffffffffffff166000809054906101000a900473ffffffffffffffffffffffffffffffffffffffff1673ffffffffffffffffffffffffffffffffffffffff16146113e457600080fd5b6000600460006101000a81548173ffffffffffffffffffffffffffffffffffffffff021916908373ffffffffffffffffffffffffffffffffffffffff1602179055506005600b60006101000a81548160ff0219169083600581111561144557fe5b0217905550565b3373ffffffffffffffffffffffffffffffffffffffff166000809054906101000a900473ffffffffffffffffffffffffffffffffffffffff1673ffffffffffffffffffffffffffffffffffffffff16146114a557600080fd5b6040518060400160405280600981526020017f417661696c61626c650000000000000000000000000000000000000000000000815250600990805190602001906114f0929190611a3b565b506000600460006101000a81548173ffffffffffffffffffffffffffffffffffffffff021916908373ffffffffffffffffffffffffffffffffffffffff1602179055506002600b60006101000a81548160ff0219169083600581111561155257fe5b0217905550565b3373ffffffffffffffffffffffffffffffffffffffff16600160009054906101000a900473ffffffffffffffffffffffffffffffffffffffff1673ffffffffffffffffffffffffffffffffffffffff16146115b357600080fd5b80600a90805190602001906115c9929190611a3b565b506040518060400160405280600881526020017f52656a656374656400000000000000000000000000000000000000000000000081525060099080519060200190611615929190611a3b565b506001600b60006101000a81548160ff0219169083600581111561163557fe5b021790555050565b6000809054906101000a900473ffffffffffffffffffffffffffffffffffffffff1681565b600460009054906101000a900473ffffffffffffffffffffffffffffffffffffffff1681565b600760009054906101000a900473ffffffffffffffffffffffffffffffffffffffff1681565b3373ffffffffffffffffffffffffffffffffffffffff166000809054906101000a900473ffffffffffffffffffffffffffffffffffffffff1673ffffffffffffffffffffffffffffffffffffffff161461170757600080fd5b82600760006101000a81548173ffffffffffffffffffffffffffffffffffffffff021916908373ffffffffffffffffffffffffffffffffffffffff160217905550600760009054906101000a900473ffffffffffffffffffffffffffffffffffffffff16600460006101000a81548173ffffffffffffffffffffffffffffffffffffffff021916908373ffffffffffffffffffffffffffffffffffffffff1602179055506040518060400160405280600681526020017f5368617265640000000000000000000000000000000000000000000000000000815250600990805190602001906117f6929190611a3b565b50806008908051906020019061180d929190611a3b565b508160059080519060200190611824929190611a3b565b506004600b60006101000a81548160ff0219169083600581111561184457fe5b0217905550505050565b600a8054600181600116156101000203166002900480601f0160208091040260200160405190810160405280929190818152602001828054600181600116156101000203166002900480156118e45780601f106118b9576101008083540402835291602001916118e4565b820191906000526020600020905b8154815290600101906020018083116118c757829003601f168201915b505050505081565b60068054600181600116156101000203166002900480601f0160208091040260200160405190810160405280929190818152602001828054600181600116156101000203166002900480156119825780601f1061195757610100808354040283529160200191611982565b820191906000526020600020905b81548152906001019060200180831161196557829003601f168201915b505050505081565b60088054600181600116156101000203166002900480601f016020809104026020016040519081016040528092919081815260200182805460018160011615610100020316600290048015611a205780601f106119f557610100808354040283529160200191611a20565b820191906000526020600020905b815481529060010190602001808311611a0357829003601f168201915b505050505081565b600b60009054906101000a900460ff1681565b828054600181600116156101000203166002900490600052602060002090601f016020900481019282601f10611a7c57805160ff1916838001178555611aaa565b82800160010185558215611aaa579182015b82811115611aa9578251825591602001919060010190611a8e565b5b509050611ab79190611abb565b5090565b611add91905b80821115611ad9576000816000905550600101611ac1565b5090565b9056fea165627a7a72305820fd7f537b7ac32b645465fcf8e6d1cea220ba2bf6171e51a4382ca397d31c24e40029",
  "source": "pragma solidity >=0.4.25 <0.6.0;\n\ncontract DigitalLocker\n{\n    enum StateType { Requested, DocumentReview, AvailableToShare, SharingRequestPending, SharingWithThirdParty, Terminated }\n    address public Owner;\n    address public BankAgent;\n    string public LockerFriendlyName;\n    string public LockerIdentifier;\n    address public CurrentAuthorizedUser;\n    string public ExpirationDate;\n    string public Image;\n    address public ThirdPartyRequestor;\n    string public IntendedPurpose;\n    string public LockerStatus;\n    string public RejectionReason;\n    StateType public State;\n\n    constructor(string memory lockerFriendlyName, address bankAgent) public\n    {\n        Owner = msg.sender;\n        LockerFriendlyName = lockerFriendlyName;\n\n        State = StateType.DocumentReview; //////////////// should be StateType.Requested?\n\n        BankAgent = bankAgent;\n    }\n\n    function BeginReviewProcess() public\n    {\n        /* Need to update, likely with registry to confirm sender is agent\n        Also need to add a function to re-assign the agent.\n        */\n        if (Owner == msg.sender)\n        {\n            revert();\n        }\n        BankAgent = msg.sender;\n\n        LockerStatus = \"Pending\";\n        State = StateType.DocumentReview;\n    }\n\n    function RejectApplication(string memory rejectionReason) public\n    {\n        if (BankAgent != msg.sender)\n        {\n            revert();\n        }\n\n        RejectionReason = rejectionReason;\n        LockerStatus = \"Rejected\";\n        State = StateType.DocumentReview;\n    }\n\n    function UploadDocuments(string memory lockerIdentifier, string memory image) public\n    {\n        if (BankAgent != msg.sender)\n        {\n            revert();\n        }\n        LockerStatus = \"Approved\";\n        Image = image;\n        LockerIdentifier = lockerIdentifier;\n        State = StateType.AvailableToShare;\n    }\n\n    function ShareWithThirdParty(address thirdPartyRequestor, string memory expirationDate, string memory intendedPurpose) public\n    {\n        if (Owner != msg.sender)\n        {\n            revert();\n        }\n\n        ThirdPartyRequestor = thirdPartyRequestor;\n        CurrentAuthorizedUser = ThirdPartyRequestor;\n\n        LockerStatus = \"Shared\";\n        IntendedPurpose = intendedPurpose;\n        ExpirationDate = expirationDate;\n        State = StateType.SharingWithThirdParty;\n    }\n\n    function AcceptSharingRequest() public\n    {\n        if (Owner != msg.sender)\n        {\n            revert();\n        }\n\n        CurrentAuthorizedUser = ThirdPartyRequestor;\n        State = StateType.SharingWithThirdParty;\n    }\n\n    function RejectSharingRequest() public\n    {\n        if (Owner != msg.sender)\n        {\n            revert();\n        }\n        LockerStatus = \"Available\";\n        CurrentAuthorizedUser = 0x0000000000000000000000000000000000000000;\n        State = StateType.AvailableToShare;\n    }\n\n    function RequestLockerAccess(string memory intendedPurpose) public\n    {\n        if (Owner == msg.sender)\n        {\n            revert();\n        }\n\n        ThirdPartyRequestor = msg.sender;\n        IntendedPurpose = intendedPurpose;\n        State = StateType.SharingRequestPending;\n    }\n\n    function ReleaseLockerAccess() public\n    {\n\n        if (CurrentAuthorizedUser != msg.sender)\n        {\n            revert();\n        }\n        LockerStatus = \"Available\";\n        ThirdPartyRequestor = 0x0000000000000000000000000000000000000000;\n        CurrentAuthorizedUser = 0x0000000000000000000000000000000000000000;\n        IntendedPurpose = \"\";\n        State = StateType.AvailableToShare;\n    }\n    \n    function RevokeAccessFromThirdParty() public\n    {\n        if (Owner != msg.sender)\n        {\n            revert();\n        }\n        LockerStatus = \"Available\";\n        CurrentAuthorizedUser = 0x0000000000000000000000000000000000000000;\n        State = StateType.AvailableToShare;\n    }\n\n    function Terminate() public\n    {\n        if (Owner != msg.sender)\n        {\n            revert();\n        }\n        CurrentAuthorizedUser = 0x0000000000000000000000000000000000000000;\n        State = StateType.Terminated;\n    }\n}",
  "sourcePath": "c:/HomeProjects/Conf/dwx19/src/contracts/DigitalLocker.sol",
  "compiler": {
    "name": "solc",
    "version": "0.5.8+commit.23d335f2.Emscripten.clang"
  },
  "schemaVersion": "3.0.11",
  "updatedAt": "2019-06-23T15:30:23.090Z",
  "devdoc": {
    "methods": {}
  },
  "userdoc": {
    "methods": {}
  }
}