{
  "contractName": "myPostBox",
  "abi": [
    {
      "anonymous": false,
      "inputs": [
        {
          "indexed": false,
          "name": "message",
          "type": "string"
        }
      ],
      "name": "Posted",
      "type": "event"
    },
    {
      "constant": false,
      "inputs": [
        {
          "name": "text",
          "type": "string"
        }
      ],
      "name": "postMsg",
      "outputs": [],
      "payable": false,
      "stateMutability": "nonpayable",
      "type": "function"
    },
    {
      "constant": true,
      "inputs": [],
      "name": "getMsg",
      "outputs": [
        {
          "name": "",
          "type": "string"
        }
      ],
      "payable": false,
      "stateMutability": "view",
      "type": "function"
    },
    {
      "constant": true,
      "inputs": [],
      "name": "getCount",
      "outputs": [
        {
          "name": "",
          "type": "int64"
        }
      ],
      "payable": false,
      "stateMutability": "view",
      "type": "function"
    }
  ],
  "bytecode": "0x608060405234801561001057600080fd5b5061042b806100206000396000f3fe608060405234801561001057600080fd5b50600436106100415760003560e01c8063a87d942c14610046578063b0fa10181461006a578063b5fdeb2314610125575b600080fd5b61004e6101a8565b604051808260070b60070b815260200191505060405180910390f35b6101236004803603602081101561008057600080fd5b810190808035906020019064010000000081111561009d57600080fd5b8201836020820111156100af57600080fd5b803590602001918460018302840111640100000000831117156100d157600080fd5b91908080601f016020809104026020016040519081016040528093929190818152602001838380828437600081840152601f19601f8201169050808301925050505050505091929192905050506101bf565b005b61012d6102b8565b6040518080602001828103825283818151815260200191508051906020019080838360005b8381101561016d578082015181840152602081019050610152565b50505050905090810190601f16801561019a5780820380516001836020036101000a031916815260200191505b509250505060405180910390f35b6000600160009054906101000a900460070b905090565b7fcb29a472e67a29d4852265025550639832cc94eea5ccdc2af621a54a92694fe8816040518080602001828103825283818151815260200191508051906020019080838360005b83811015610221578082015181840152602081019050610206565b50505050905090810190601f16801561024e5780820380516001836020036101000a031916815260200191505b509250505060405180910390a16001600081819054906101000a900460070b8092919060010191906101000a81548167ffffffffffffffff021916908360070b67ffffffffffffffff1602179055505080600090805190602001906102b492919061035a565b5050565b606060008054600181600116156101000203166002900480601f0160208091040260200160405190810160405280929190818152602001828054600181600116156101000203166002900480156103505780601f1061032557610100808354040283529160200191610350565b820191906000526020600020905b81548152906001019060200180831161033357829003601f168201915b5050505050905090565b828054600181600116156101000203166002900490600052602060002090601f016020900481019282601f1061039b57805160ff19168380011785556103c9565b828001600101855582156103c9579182015b828111156103c85782518255916020019190600101906103ad565b5b5090506103d691906103da565b5090565b6103fc91905b808211156103f85760008160009055506001016103e0565b5090565b9056fea165627a7a72305820c0d21e4bb1c1094827f9f0cc64146ca6b6255a1f8cadb4c9fabd8ec426e554050029",
  "source": "pragma solidity >=0.4.22 <0.6.0;\r\n\r\ncontract myPostBox{\r\n    string message;\r\n    int64 count;\r\n    event Posted(string message);\r\n    \r\n    function postMsg(string memory text) public {\r\n        emit Posted(text);\r\n        count++;\r\n        message = text;\r\n    }\r\n    \r\n    function getMsg() public view returns (string memory) {\r\n        return message;   \r\n    }\r\n    \r\n    function getCount() public view returns (int64) {\r\n        return count;\r\n    }\r\n}",
  "sourcePath": "c:/HomeProjects/Conf/dwx19/src/contracts/myPostBox.sol",
  "compiler": {
    "name": "solc",
    "version": "0.5.8+commit.23d335f2.Emscripten.clang"
  },
  "schemaVersion": "3.0.11",
  "updatedAt": "2019-06-24T09:04:51.404Z",
  "devdoc": {
    "methods": {}
  },
  "userdoc": {
    "methods": {}
  }
}